:100000000C9429010C9446010C9446010C94460171
:100010000C9446010C9446010C9446010C94460144
:100020000C9446010C9446010C9446010C94460134
:100030000C9446010C9446010C9446010C94460124
:100040000C9446010C9446010C9446010C94460114
:100050000C94460105A84CCDB2D44EB93836A9024D
:100060000C50B9918688083CA6AAAA2ABE000000B6
:10007000803F000000000000005F00000007000754
:1000800000147F147F14242A7F2A12231308646229
:1000900036495522500005030000001C2241000093
:1000A00041221C00082A1C2A0808083E08080050A3
:1000B00030000008080808080060600000201008F0
:1000C00004023E5149453E00427F40004261514991
:1000D000462141454B311814127F102745454539BB
:1000E0003C4A4949300171090503364949493606F8
:1000F0004949291E00363600000056360000000827
:100100001422411414141414412214080002015141
:100110000906324979413E7E1111117E7F494949D4
:10012000363E414141227F4141221C7F494949419C
:100130007F090901013E414151327F0808087F00D3
:10014000417F41002040413F017F081422417F4010
:100150004040407F0204027F7F0408107F3E4141FF
:10016000413E7F090909063E4151215E7F09192957
:1001700046464949493101017F01013F4040403F26
:100180001F2040201F7F2018207F63140814630362
:1001900004780403615149454300007F4141020452
:1001A00008102041417F0000040201020440404049
:1001B0004040000102040020545454787F484444D5
:1001C000383844444420384444487F385454541800
:1001D000087E090102081454543C7F080404780086
:1001E000447D40002040443D00007F1028440041F1
:1001F0007F40007C041804787C0804047838444468
:1002000044387C14141408081414187C7C08040462
:10021000084854545420043F4440203C4040207C33
:100220001C2040201C3C4030403C44281028440CFA
:100230005050503C4464544C440008364100000087
:100240007F0000004136080008082A1C08081C2A04
:10025000080811241FBECFE5D4E0DEBFCDBF11E0FA
:10026000A0E6B0E0E4E0FCE202C005900D92A63703
:10027000B107D9F711E0A6E7B1E001C01D92AC3794
:10028000B107E1F70E94910C0C9400160C94000049
:1002900020E030E04AEF50E005C0FA013197F1F775
:1002A0002F5F3F4F28173907C4F308956F927F924D
:1002B0008F929F92AF92BF92CF92DF92EF92FF9276
:1002C0000F931F93CF93DF933B014C016115710591
:1002D0008105910521F4EE24FF2487012BC0A12C78
:1002E00090E8B92EC12CD12CEE24FF248701C0E068
:1002F000D0E0EA28FB280C291D29C801B701A80174
:1003000097010E941013661677068806990650F426
:10031000D601C50180959095A095B095E822F92267
:100320000A231B23D694C794B794A7942196C0316F
:10033000D105F9F6B701C801DF91CF911F910F9157
:10034000FF90EF90DF90CF90BF90AF909F908F90F5
:100350007F906F90089580E58DB9709A08951DB8CB
:1003600008958FB9779BFECF8FB10895C4988FB948
:10037000779BFECF8FB1C49A08958FB9779BFECF3C
:100380008FB108959C01892F990F990B8FB9779B95
:10039000FECF8FB12FB9779BFECF8FB10895FA01B1
:1003A0009C01552737FD5095452FA22F272F382F19
:1003B000492F552747FD5A950DC0AFB9779BFECF02
:1003C0008FB12FB9779BFECF8FB16FB9779BFECFDF
:1003D0008FB131971E161F0684F308950F931F9354
:1003E000CF93DF938C01EB018CE20E94B601812F49
:1003F000992787FD9A9507C08FB9779BFECF0FB9D4
:10040000779BFECF21972097B9F7DF91CF911F916E
:100410000F91089587B3806F87BBC69A0895C698D9
:100420008AEF90E00197F1F7C69A80E090E02AEF1A
:1004300030E0F9013197F1F7019686399105C9F756
:1004400008950E940F0281E10E94B60180E090E0D1
:100450002AEF30E0F9013197F1F7019686399105DD
:10046000C9F78AE30E94B60185E08FB9779BFECF7A
:100470008FB189E20E94B6010895EF92FF920F9327
:100480001F93182FF62E042FE22E8AE20E94B60147
:10049000812F90E00E94C201802F90E00E94C20153
:1004A0008BE20E94B6018F2D90E00E94C2018E2D3A
:1004B00090E00E94C2011F910F91FF90EF9008956C
:1004C00080E060E04FE72FE90E943D028CE20E944D
:1004D000B60180E090EA1FB8779BFECF0197D9F76D
:1004E000089587B3806F87BBC69A0E940F0280E58C
:1004F0008DB9709A0E9421020E94600208950F93A4
:100500001F93982F262F8A01492F0E943D02C80170
:1005100061E070E00E94EE011F910F910895EF924B
:10052000FF920F931F93082F162F942F7901642F9A
:10053000412F292F0E943D02101B1F5FC701612F11
:1005400070E00E94EE011F910F91FF90EF900895CF
:10055000EF92FF920F931F93982F062F142F79017C
:10056000492F212F0E943D02101B1F5FC701612FE1
:1005700070E00E94EE011F910F91FF90EF9008959F
:100580002F923F924F925F926F927F928F929F92A3
:10059000AF92BF92CF92DF92EF92FF920F931F9391
:1005A000DF93CF9300D000D000D0CDB7DEB75C0191
:1005B0006B013A0149011C830B837A01E81AF90A9D
:1005C000F7FE04C0F094E194F108F394A614B70484
:1005D0002CF02FEF3FEF3A83298304C081E090E0B5
:1005E0009A83898384010C191D0917FF03C0109594
:1005F00001951F4FC814D90424F022242A94322CC8
:1006000003C091E0292E312C0E151F0534F4F7019B
:10061000F595E795FE83ED830FC0C80162E070E0B9
:100620000E943B1322273327261B370B3E832D8343
:1006300003C09E838D8304C0442455244E185F0854
:100640008A2D6C2D4B815C810E947F02A614B70419
:1006500019F4C814D904B9F08D819E814816590641
:1006600044F48D819E81801B910BE981FA81AE0E4D
:10067000BF1E2D813E8120173107DCF68E0D9F1D98
:10068000C20CD31CD6CF26960FB6F894DEBF0FBE91
:10069000CDBFCF91DF911F910F91FF90EF90DF9031
:1006A000CF90BF90AF909F908F907F906F905F9012
:1006B0004F903F902F900895CF92DF92EF92FF924C
:1006C0000F931F93F82EC62EE42ED22E642F4C2D9E
:1006D00098010E948F028F2D6E2D4D2D98010E9442
:1006E0008F028F2D6C2D4D2D98010E94A8028E2D0A
:1006F0006C2D4D2D98010E94A8021F910F91FF9023
:10070000EF90DF90CF900895CF92DF92EF92FF921B
:100710000F931F93C82EE62ED42EF22E0E943D0278
:1007200081E0682F6E196F0D8C198D0D689FB001D7
:100730001124C8010E94EE011F910F91FF90EF90CC
:10074000DF90CF9008952F923F924F925F927F92C9
:100750008F929F92AF92BF92CF92DF92EF92FF92D1
:100760000F931F93DF93CF93CDB7DEB728970FB6C4
:10077000F894DEBF0FBECDBFB82EE62EE42FF0E01A
:1007800083EC92E0AC01E49FC001E59F900DF49FE3
:10079000900D112468EE73E00E943B136B01EE9FF5
:1007A000C001EF9F900DFE9F900D11249A838983C5
:1007B0007B2C8E2C9E2CAB2C18861F8230E0D9010E
:1007C000A170B070BC83AB83F901E270F070FE835E
:1007D000ED8354E0252E312C2222332248E0442E92
:1007E000512C422253225BC02F813885229FC001A9
:1007F000239F900D329F900D112469817A81681B8F
:10080000790B882777FD8095982F0E945601F62E48
:100810004B815C81452B61F06E2D6F0D8A2DA801F7
:100820000E947F028B2D8F0D692DA8010E947F02EF
:100830008D819E81892B61F06E2D6F198A2DA80103
:100840000E947F028B2D8F0D682DA8010E947F02D0
:100850002114310461F06E2D6F0D872DA8010E94C7
:100860007F028B2D8F19692DA8010E947F024114F0
:10087000510461F06E2D6F19872DA8010E947F022F
:100880008B2D8F19682DA8010E947F02AF81B8853A
:100890001196B887AF837A948A949394A394EF8146
:1008A000F885CE16DF060CF09FCF28960FB6F89489
:1008B000DEBF0FBECDBFCF91DF911F910F91FF9093
:1008C000EF90DF90CF90BF90AF909F908F907F90F0
:1008D0005F904F903F902F9008950F931F93890141
:1008E0002FE00E94A3031F910F9108957F928F9292
:1008F0009F92AF92BF92CF92DF92EF92FF920F93AF
:100900001F93882E162F742EB22ED02EA02EA80E36
:10091000942E901A8A2D692D412F97010E948F02E3
:100920008A2D692D4B2D97010E948F02C02EC10E7A
:10093000B01A882D6C2D4B2D97010E94A802872D8F
:100940006C2D4B2D97010E94A8028A2D6C2D402FF3
:1009500028E087010E94A303892D6C2D4D2D22E0F4
:100960000E94A3038A2D6B2D4D2D24E00E94A3032A
:10097000892D6B2D4D2D21E00E94A3031F910F9116
:10098000FF90EF90DF90CF90BF90AF909F908F90AF
:100990007F9008955F926F927F928F929F92AF9215
:1009A000BF92CF92DF92EF92FF920F931F93CF935C
:1009B000DF93582EE62E3901C42EDD24CC9CC001D5
:1009C000CD9C900DDC9C900D11244C01AA2497FC29
:1009D000A094BA2CC0E0D0E0CC9FC001CD9F900D78
:1009E000DC9F900D1124AA2797FDA095BA2FA50191
:1009F0009401281B390B4A0B5B0BCA01B9010E94F9
:100A000056010E2D061BFE2CF60E8C2F850D602F29
:100A10004F2D93010E94A802852D8C1B602F4F2D16
:100A200093010E94A8022196CC16DD06ACF6DF9158
:100A3000CF911F910F91FF90EF90DF90CF90BF90DB
:100A4000AF909F908F907F906F905F9008952F92BE
:100A50003F924F925F926F927F928F929F92AF924E
:100A6000BF92CF92DF92EF92FF920F931F93DF938B
:100A7000CF93CDB7DEB76E970FB6F894DEBF0FBE3B
:100A8000CDBF8B8F6C8FCA011A8F098F62E070E027
:100A90000E943B131B01C90162E070E00E943B13FE
:100AA0006D8F7E8F9101442737FD4095542F2D8BFC
:100AB0003E8B4F8B588FCA01B9010E9410135B0106
:100AC0006C01DC01CB01880F991FAA1FBB1F8F8708
:100AD000988BA98BBA8BAD8DBE8D7D010027F7FC5D
:100AE0000095102FC801B701A80197010E941013AB
:100AF0009B01AC01220F331F441F551F2B873C87DE
:100B00004D875E87C801B701A60195010E941013A9
:100B10002B013C016F85788989899A89A801970101
:100B20000E9410136F83788789879A874D8D5E8D19
:100B30005A8349831C8A1B8A88249924540156C0ED
:100B4000DB880B8D0D0D1981EC8CE10E802F6E2D45
:100B5000498D5A8D0E947F02FC8CF11A802F6F2DD7
:100B6000498D5A8D0E947F021B8D1D19812F6E2D7C
:100B7000498D5A8D0E947F02812F6F2D498D5A8D8C
:100B80000E947F02481859086A087B0877FE21C036
:100B900089819A8101979A838983DC01BD01882725
:100BA00077FD8095982F2F85388949895A890E9429
:100BB0001013460E571E681E791E8F819885A985D1
:100BC000BA85821B930BA40BB50B8F839887A987DB
:100BD000BA87AB89BC891196BC8BAB8B2B853C85C6
:100BE0004D855E85820E931EA41EB51E8F8198854D
:100BF000A985BA8588159905AA05BB050CF0A0CF73
:100C0000AD8DBE8DAA9FC001AB9F900DBA9F900D78
:100C10001124FC01E29DC001E39D900DF29D900D19
:100C200011242C01662457FC6094762C6B857C85FE
:100C30008D859E852D893E894F89588D0E94101380
:100C40006B837C838D839E833E8E2D8E2224332462
:100C500088249924540153C0DD8C0B8D0D0DEC8C30
:100C6000E20C802F6E2D498D5A8D0E947F02FC8CE4
:100C7000F218802F6F2D498D5A8D0E947F021B8D97
:100C80001D19812F6E2D498D5A8D0E947F02812F53
:100C90006F2D498D5A8D0E947F02481859086A08A5
:100CA0007B0877FE21C02D8D3E8D215030403E8F38
:100CB0002D8FB901882777FD8095982F2B853C854E
:100CC0004D855E850E941013460E571E681E791EC4
:100CD0008B819C81AD81BE81821B930BA40BB50BD4
:100CE0008B839C83AD83BE830894211C311C2F858C
:100CF000388949895A89820E931EA41EB51E8B819C
:100D00009C81AD81BE8188159905AA05BB050CF0B3
:100D1000A3CF6E960FB6F894DEBF0FBECDBFCF91B6
:100D2000DF911F910F91FF90EF90DF90CF90BF90D8
:100D3000AF909F908F907F906F905F904F903F907B
:100D40002F9008952F923F924F925F926F927F92D1
:100D50008F929F92AF92BF92CF92DF92EF92FF92CB
:100D60000F931F93DF93CF93CDB7DEB766970FB680
:100D7000F894DEBF0FBECDBF8B8B6C8BCA011A8B74
:100D8000098B62E070E00E943B138B01C90162E0B5
:100D900070E00E943B133B01009FC001019F900D3A
:100DA000109F900D11249C01442737FD4095542F2E
:100DB00029873A874B875C87669FC001679F900DA4
:100DC000769F900D11249C01442737FD4095542FA8
:100DD0002D833E834F835887CA01B90129853A85FF
:100DE0004B855C850E94101369837A838B839C8377
:100DF0006B89600F3B89301B832F4C8929893A8985
:100E00000E948F02480144245524E1E0AE2EB12C0B
:100E1000C12CD12C78C00894811C911CB501C6014D
:100E20009501A6010E94101329853A854B855C85A2
:100E30000E9410136D877E878F87988BA4014419B9
:100E400055095E8B4D8B089481089108EE24FF2490
:100E500087011A01442437FC4094542C2CC0A8016B
:100E60009701220D331D441D551D0894E108F1081A
:100E700001091109CA01B9010E9410132D813E8197
:100E80004F8158850E9410132D853E854F855889C6
:100E9000620F731F841F951F29813A814B815C81EA
:100EA00026173707480759075CF44D895E8941507A
:100EB00050405E8B4D8B8D899E89181619067CF2E9
:100EC0001D892401ED89FE894E1A5F0AFB88F11AFB
:100ED000FB891F0F4C894A0D8F2D612F29893A8973
:100EE0000E948F024C894A198F2D612F29893A89D6
:100EF0000E948F020894A11CB11CC11CD11C2D8919
:100F00003E89C9014C016A147B040CF084CF6696BB
:100F10000FB6F894DEBF0FBECDBFCF91DF911F910A
:100F20000F91FF90EF90DF90CF90BF90AF909F9088
:100F30008F907F906F905F904F903F902F9008958B
:100F400080937A0160937B01089510927A018093D7
:100F50007B01089580917A018F5F80937A018531BA
:100F600038F080917B018F5F80937B0110927A0132
:100F700080917B01843110F010927B0108951F93C2
:100F8000843B910541F021E08E30920741F08A3593
:100F9000910539F402C010EC05C010E603C010EA58
:100FA00001C010E086E30E94B6011FB9779BFECF17
:100FB0008FB11F910895AF92BF92CF92DF92EF92BF
:100FC000FF920F931F93CF93DF93082F962F542FE9
:100FD0005901862F642F9C5F492F5A5F252F0E944D
:100FE0003D028CE20E94B60185E0089F8001112439
:100FF000EE24FF24F394F2EDCF2EFFEFDF2EC00E90
:10100000D11E0952104014C0FE0184918F2119F4A1
:1010100020E030E001C09501C9010E94C201219683
:10102000C017D10789F7E394F7E0EF1619F0FF0C2A
:10103000E601EACFDF91CF911F910F91FF90EF90E2
:10104000DF90CF90BF90AF9008959B0160917A019F
:1010500096E0699FB001112440917B0150E0A3E02C
:10106000440F551FAA95E1F70E94DB070E94AA07CB
:1010700008950F931F93CF93DF93EC018B0104C06E
:10108000B8010E942508219688818823C9F7DF913D
:10109000CF911F910F9108950F931F93CF93DF93DB
:1010A0000E946002C0E0D0E080E490E060E570E083
:1010B000AE0120E030E000EE1FEF0E94C002229659
:1010C000C038D10589F7C0E0D0E080E490E060E569
:1010D00070E04FE750E09E010FEF17E00E94C00262
:1010E0002296C03AD10589F7CFE7D0E080E490E0BE
:1010F00060E570E0AE012FE930E000EE1FEF0E94E6
:10110000C00222978FEFCF3FD80781F7CFE9D0E019
:1011100080E490E060E570E040E050E09E010FEF79
:1011200017E00E94C00222978FEFCF3FD80781F7C8
:10113000DF91CF911F910F9108951F930E9460023C
:1011400016E08CE360E5412F20EE3FEF0E946D0436
:101150001E5F1C33B1F71F9108951F93CF93DF9348
:101160000E946002C4EAD1E016E0CE0160E670E0C1
:101170000E943B13E82FE05ECE0165E170E00E9423
:101180003B13819F90011124CE0165E170E00E9424
:101190003B13462F50E0B3E0440F551FBA95E1F7DB
:1011A0008E2F622F2FEF37E00E94DB072197E9F6A1
:1011B000DF91CF911F91089586B39091690080933C
:1011C00069008095892308950F931F9380E060E064
:1011D00040E820EA00E010E00E9484031F910F9194
:1011E00008956F927F928F929F92AF92BF92CF920B
:1011F000DF92EF92FF920F931F93809079019924D1
:10120000809178016CE00E942F13292F30E082EE4C
:101210009FEF289FB001299F700D389F700D1124FA
:10122000665A7F4F882777FD8095982F0E94691016
:101230007B018C01B401882777FD8095982F0E944F
:10124000691020E030E040E752E40E948D0F20E07A
:1012500030E040EF51EC0E94930E9B01AC01C801BD
:10126000B7010E94660E2BED3FE049E450E40E9476
:10127000930E20E030E044E353E40E948D0F5B01C5
:101280006C018AEF9FEF889EB001899E700D989E39
:10129000700D1124665A7F4F882777FD8095982F0F
:1012A0000E9469102BED3FE049E450E40E94930E48
:1012B00020E030E044E353E40E948D0F7B018C0179
:1012C000C8010E941B143B014C01B701C8010E94D8
:1012D00079147B018C01C401B30120E030E048E1C6
:1012E00052E40E94930E20E030E040E852E40E9475
:1012F000660E0E94C7103B014C01C801B70120E0F7
:1013000030E048E152E40E94930E9B01AC0160E0A2
:1013100070E080E792E40E94350E0E94C7108B01B6
:101320009C0180E490E06CE370E0A301980100E090
:1013300010E00E94C002B501C6010E941B143B01CF
:101340004C01B501C6010E9479147B018C01C401D6
:10135000B30120E030E040EF51E40E94930E20E022
:1013600030E040E852E40E94660E0E94C7105B0124
:101370006C01C801B70120E030E040EF51E40E9469
:10138000930E9B01AC0160E070E080E792E40E9464
:10139000350E0E94C7108B019C0180E490E06CE345
:1013A00070E0A501980100E010E00E94C0021F91CA
:1013B0000F91FF90EF90DF90CF90BF90AF909F90F4
:1013C0008F907F906F9008952F923F924F925F92EF
:1013D0006F927F928F929F92AF92BF92CF92DF9245
:1013E000EF92FF920F931F93DF93CF93CDB7DEB7AA
:1013F00028970FB6F894DEBF0FBECDBF222433244A
:10140000B101882777FD8095982F0E9469102BEDF8
:101410003FE049E450E40E94930E20E030E044E3D2
:1014200053E40E948D0F7B018C01C8010E941B14A4
:1014300069837A838B839C83B701C8010E947914E6
:101440004B015C0169817A818B819C8120E030E0D5
:1014500040E252E40E94930E20E030E040E852E483
:101460000E94660E0E94BD0C6D837E838F839887D9
:10147000C501B40120E030E040E252E40E94930E46
:101480009B01AC0160E070E080E792E40E94350EC1
:101490000E94BD0C2B013C0169817A818B819C816A
:1014A00020E030E044E352E40E94930E20E030E07C
:1014B00040E852E40E94660E0E94BD0C6B017C0164
:1014C000C501B40120E030E044E352E40E94930EF1
:1014D0009B01AC0160E070E080E792E40E94350E71
:1014E0000E94BD0C8B019C018D8190E0642D70E009
:1014F0004C2D50E0202F30E000EE17E00E94C0029B
:101500008EE190E0280E391E98E6291691E0390602
:1015100009F076CF28960FB6F894DEBF0FBECDBF88
:10152000CF91DF911F910F91FF90EF90DF90CF90BF
:10153000BF90AF909F908F907F906F905F904F90F3
:101540003F902F9008950F931F93CF93DF930E94A6
:101550006002C0EADFE00E94EA138C010E94EA13F5
:101560009C01C80160E870E00E943B13FC013197C8
:10157000C90160EA70E00E943B13BC0161507040F9
:101580008E2F40EE5FEF0E947F02219721F7DF91BF
:10159000CF911F910F9108950F931F93DF93CF93D6
:1015A000CDB7DEB728970FB6F894DEBF0FBECDBF1C
:1015B0008E010F5F1F4FB80140E150E00E94FA1307
:1015C000C8016FEF7FEF0E94390828960FB6F89494
:1015D000DEBF0FBECDBFCF91DF911F910F91089558
:1015E0000F931F93DF93CF93CDB7DEB728970FB636
:1015F000F894DEBF0FBECDBF8E010F5F1F4FB80145
:101600004AE050E00E94FA13C8016FEF7FEF0E949A
:10161000390828960FB6F894DEBF0FBECDBFCF9124
:10162000DF911F910F9108951F93809176018A3069
:1016300080F48BE080937A011FE010937B0180E0BF
:1016400090E00E94F00A8CE080937A0110937B0175
:1016500006C08BE080937A018FE080937B018091BC
:10166000760190E00E94F00A8DE080937A011FE0FD
:1016700010937B0180E690E060EE77E00E943908ED
:1016800085E080937A0110937B0182E690E060EE22
:1016900077E00E943908809177018A3060F48EE00B
:1016A00080937A0110937B0180E090E00E94F00A21
:1016B00010937A0103C08EE080937A0110937B012E
:1016C0008091770190E00E94F00A1F9108954F9257
:1016D0005F926F927F928F929F92AF92BF92CF92C2
:1016E000DF92EF92FF920F931F93509076014090FC
:1016F0007701842C9924852D6CE00E942F13292FCB
:1017000030E082EE9FEF289FB001299F700D389F37
:10171000700D1124665A7F4F882777FD8095982F8A
:101720000E9469107B018C01B401882777FD8095A8
:10173000982F0E94691020E030E040E752E40E94B8
:101740008D0F20E030E040EF51EC0E94930E9B01A2
:10175000AC01C801B7010E94660E2BED3FE049E4E1
:1017600050E40E94930E20E030E044E353E40E94F2
:101770008D0F5B016C018AEF9FEF889EB001899EFF
:10178000700D989E700D1124665A7F4F882777FD43
:101790008095982F0E9469102BED3FE049E450E4BA
:1017A0000E94930E20E030E044E353E40E948D0F4A
:1017B0007B018C01C8010E941B143B014C01B70145
:1017C000C8010E9479147B018C01C401B30120E09F
:1017D00030E048E152E40E94930E20E030E040E81F
:1017E00052E40E94660E0E94C7103B014C01C801E2
:1017F000B70120E030E048E152E40E94930E9B01E3
:10180000AC0160E070E080E792E40E94350E0E9437
:10181000C7108B019C0180E490E06CE370E0A301B1
:1018200098010FEF1FEF0E94C002B501C6010E9490
:101830001B143B014C01B501C6010E9479147B01C8
:101840008C01C401B30120E030E040EF51E40E947C
:10185000930E20E030E040E852E40E94660E0E94C1
:10186000C7105B016C01C801B70120E030E040EF18
:1018700051E40E94930E9B01AC0160E070E080E7B0
:1018800092E40E94350E0E94C7108B019C0180E4F7
:1018900090E06CE370E0A501980100EE17E00E9473
:1018A000C00250927801409279010E94140B1F915E
:1018B0000F91FF90EF90DF90CF90BF90AF909F90EF
:1018C0008F907F906F905F904F900895CF93DF93AC
:1018D000C9E1D0E086B3982F9095209169009223BA
:1018E0008093690091FD1AC00E94F1080E94670B65
:1018F000809177018F5F809377018C3339F4109258
:101900007701809176018F5F8093760188E893E17B
:10191000FE013197F1F70197E9F2FACFDF91CF910C
:101920000895CF93DF9317BA8FEF88BB81BB82BB3B
:101930000E9471020E94E4080E94E4090E94670B61
:10194000C4ECD9E086B3982F90952091690092233A
:101950008093690090FF03C00E94660C0AC092FF4A
:1019600008C010927601109277010E94F1080E943F
:10197000670BCE010197F1F7E5CFEF92FF920F933E
:101980001F937B018C0120E030E040E05FE40E9487
:10199000391088238CF0C801B70120E030E040E026
:1019A0005FE40E94350E0E94C7109B01AC012050DD
:1019B00030404040504806C0C801B7010E94C710DF
:1019C0009B01AC01B901CA011F910F91FF90EF90EB
:1019D0000895A0E0B0E0EFEEFCE00C946213DC01AF
:1019E0002B01FA019C91923008F439C1EB018881F6
:1019F000823008F433C1943069F4843009F02FC187
:101A000011969C9111978981981709F428C1AAE62B
:101A1000B0E025C1843009F421C18230A9F49230AC
:101A200009F01DC19A01AD0188E0EA010990AE01FB
:101A3000E90109929E018150C1F7E2018981119665
:101A40009C918923818308C1923009F407C11296C1
:101A50002D903C901397EB018A819B811496AD9059
:101A6000BD90CD90DC901797EC80FD800E811F819A
:101A70009101281B390BB90137FF04C0662777276E
:101A8000621B730B603271050CF061C012161306F5
:101A90006CF537014801062E04C09694879477941C
:101AA00067940A94D2F721E030E040E050E004C0AF
:101AB000220F331F441F551F6A95D2F72150304023
:101AC000404050402E213F21402351232115310514
:101AD0004105510521F021E030E040E050E079017E
:101AE0008A01E628F728082919293CC0232BD1F1BF
:101AF000260E371E35014601062E04C096948794A3
:101B0000779467940A94D2F721E030E040E050E007
:101B100004C0220F331F441F551F6A95D2F721506E
:101B20003040404050402A213B214C215D2121156D
:101B300031054105510521F021E030E040E050E061
:101B400059016A01A628B728C828D9280BC08215D0
:101B500093052CF01C01AA24BB24650103C0EE24CC
:101B6000FF24870111969C91D20111968C919817B0
:101B700009F445C0992339F0A80197012A193B09B6
:101B80004C095D0906C0A60195012E193F09400BBD
:101B9000510B57FD08C01182338222822483358382
:101BA000468357831DC081E0818333822282882748
:101BB0009927DC01821B930BA40BB50B84839583BF
:101BC000A683B7830DC0220F331F441F551F2483E4
:101BD00035834683578382819381019793838283E0
:101BE0002481358146815781DA01C9010197A10914
:101BF000B1098F5F9F4FAF4FBF4328F30BC0918355
:101C000033822282EA0CFB1C0C1D1D1DE482F5822E
:101C10000683178383E08083248135814681578141
:101C200057FF1AC0C901AA2797FDA095BA2F817046
:101C30009070A070B0705695479537952795822B78
:101C4000932BA42BB52B84839583A683B7838281A2
:101C50009381019693838283DF0101C0D201CD017C
:101C6000CDB7DEB7E2E10C947E13A0E2B0E0EBE387
:101C7000FEE00C946E1369837A838B839C832D839F
:101C80003E834F835887E9E0EE2EF12CEC0EFD1ECB
:101C9000CE010196B7010E943F128E010F5E1F4FC9
:101CA000CE010596B8010E943F128A8991E08927EA
:101CB0008A8BC701B801AE01475E5F4F0E94E90CF5
:101CC0000E946A11A096E6E00C948A13A0E2B0E0AC
:101CD000ECE6FEE00C946E1369837A838B839C831D
:101CE0002D833E834F835887F9E0EF2EF12CEC0EC5
:101CF000FD1ECE010196B7010E943F128E010F5EBC
:101D00001F4FCE010596B8010E943F12C701B801CE
:101D1000AE01475E5F4F0E94E90C0E946A11A096D7
:101D2000E6E00C948A13A0E2B0E0E9E9FEE00C944E
:101D3000621369837A838B839C832D833E834F83D5
:101D40005887CE010196BE01675F7F4F0E943F1208
:101D5000CE010596BE016F5E7F4F0E943F129985AE
:101D6000923088F089898230C8F0943019F482303A
:101D700051F404C0843029F4923081F48AE690E072
:101D8000C6C0923049F420E09A858A89981321E0F0
:101D90002A87CE010996BBC0823049F420E09A859B
:101DA0008A89981321E02A8BCE014196B0C02D84F8
:101DB0003E844F8458886D887E888F88988CEE2466
:101DC000FF248701AA24BB24650140E050E060E0C5
:101DD00070E0E0E0F0E0C10181709070892BE9F0E3
:101DE000E60CF71C081D191D9A01AB012A0D3B1DBD
:101DF0004C1D5D1D80E090E0A0E0B0E0E614F7042B
:101E00000805190520F481E090E0A0E0B0E0BA01F7
:101E1000A901480F591F6A1F7B1FAA0CBB1CCC1CB1
:101E2000DD1C97FE08C081E090E0A0E0B0E0A82AA9
:101E3000B92ACA2ADB2A3196E032F10549F0660C4C
:101E4000771C881C991C5694479437942794C3CFC9
:101E5000FA85EA892B893C898B859C85280F391F57
:101E60002E5F3F4F17C0CA0181709070892B61F0BF
:101E700016950795F794E79480E090E0A0E0B0E82D
:101E8000E82AF92A0A2B1B2B7695679557954795D3
:101E90002F5F3F4F77FDE7CF0CC0440F551F661FE4
:101EA000771F17FD4160EE0CFF1C001F111F215012
:101EB0003040403090E0590790E0690790E479079E
:101EC00060F32B8F3C8FDB01CA018F779070A0707D
:101ED000B07080349105A105B10561F447FD0AC0D9
:101EE000E114F1040105110529F0405C5F4F6F4FCB
:101EF0007F4F40781A8EFE1711F081E08A8F4D8F48
:101F00005E8F6F8F78A383E0898FCE0149960E9400
:101F10006A11A096E2E10C947E13A8E1B0E0E3E937
:101F2000FFE00C946A1369837A838B839C832D83EF
:101F30003E834F835887B9E0EB2EF12CEC0EFD1E4B
:101F4000CE010196B7010E943F128E010F5E1F4F16
:101F5000CE010596B8010E943F122985223008F46F
:101F60007EC03989323010F4B8017CC08A859A89E4
:101F700089278A87243011F0223031F4231709F0A1
:101F80006EC06AE670E06EC0343039F41D861E867D
:101F90001F86188A1C861B8604C0323021F484E018
:101FA0008987B7015FC02B853C858B899C89281B5D
:101FB000390B3C872B87ED84FE840F851889AD880B
:101FC000BE88CF88D88CEA14FB040C051D0540F4AC
:101FD000EE0CFF1C001F111F215030403C872B8747
:101FE00020E030E040E050E080E090E0A0E0B0E4AD
:101FF00060E070E0EA14FB040C051D0540F0282B9E
:10200000392B4A2B5B2BEA18FB080C091D09B695E6
:10201000A79597958795EE0CFF1C001F111F6F5F0A
:102020007F4F6F31710531F7DA01C9018F779070F9
:10203000A070B07080349105A105B10561F427FD51
:102040000AC0E114F1040105110529F0205C3F4F9D
:102050004F4F5F4F20782D873E874F87588BBE01AB
:10206000675F7F4FCB010E946A116896EAE00C948B
:102070008613A8E1B0E0EFE3F0E10C946E136983FE
:102080007A838B839C832D833E834F83588789E09B
:10209000E82EF12CEC0EFD1ECE010196B7010E9438
:1020A0003F128E010F5E1F4FCE010596B8010E94B0
:1020B0003F128985823040F08989823028F0C7013B
:1020C000B8010E94B71201C08FEF6896E6E00C9449
:1020D0008A13A8E0B0E0EFE6F0E10C946B139B01EB
:1020E000AC0183E08983DA01C9018827B7FD8395B4
:1020F0009927AA27BB27B82E21153105410551057F
:1021000019F482E089833AC08823A9F0203080E066
:10211000380780E0480780E8580729F460E070E05D
:1021200080E09FEC30C0EE24FF248701E21AF30A1E
:10213000040B150B02C079018A018EE1C82ED12C47
:10214000DC82CB82ED82FE820F831887C801B70143
:102150000E941B1101971816190684F4082E04C05A
:10216000EE0CFF1C001F111F0A94D2F7ED82FE82B5
:102170000F831887C81AD90ADC82CB82BA82CE01B3
:1021800001960E946A112896E9E00C948713ACE04E
:10219000B0E0EDECF0E10C94721369837A838B83E9
:1021A0009C83CE010196BE016B5F7F4F0E943F1260
:1021B0008D81823061F1823050F1843021F48E8142
:1021C000882351F12EC02F81388537FD20C06E81C4
:1021D0002F3131051CF06623F9F023C08EE190E029
:1021E000821B930B29853A854B855C8504C05695E7
:1021F0004795379527958A95D2F76623B1F0509584
:102200004095309521953F4F4F4F5F4F0EC020E0D6
:1022100030E040E050E009C02FEF3FEF4FEF5FE7C5
:1022200004C020E030E040E050E8B901CA012C963B
:10223000E2E00C948E13EF92FF920F931F937B01B9
:102240008C0180E0E81680E0F80681E0080780E075
:10225000180788F48FEFE816F1040105110531F035
:1022600028F088E090E0A0E0B0E017C080E090E0C7
:10227000A0E0B0E012C080E0E81680E0F80680E060
:10228000080781E0180728F088E190E0A0E0B0E0BE
:1022900004C080E190E0A0E0B0E020E230E040E067
:1022A00050E0281B390B4A0B5B0B04C016950795B1
:1022B000F794E7948A95D2F7F701EE58FF4F8081A3
:1022C000281B310941095109C9011F910F91FF9044
:1022D000EF900895DF92EF92FF920F931F93FC010E
:1022E000E480F58006811781D1808081823048F4B6
:1022F00080E090E0A0E1B0E0E82AF92A0A2B1B2B4D
:10230000A5C0843009F49FC0823021F4EE24FF245C
:10231000870105C0E114F1040105110519F4E0E09D
:10232000F0E096C0628173819FEF623879070CF00C
:102330005BC022E83FEF261B370B2A3131052CF01A
:1023400020E030E040E050E02AC0B801A701022EB2
:1023500004C076956795579547950A94D2F781E022
:1023600090E0A0E0B0E004C0880F991FAA1FBB1F37
:102370002A95D2F70197A109B1098E219F21A023A7
:10238000B1230097A105B10521F081E090E0A0E024
:10239000B0E09A01AB01282B392B4A2B5B2BDA01D9
:1023A000C9018F779070A070B07080349105A1053D
:1023B000B10539F427FF09C0205C3F4F4F4F5F4FF5
:1023C00004C0215C3F4F4F4F5F4FE0E0F0E0203012
:1023D000A0E03A07A0E04A07A0E45A0710F0E1E0C5
:1023E000F0E079018A0127C06038710564F5FB01CE
:1023F000E158FF4FD801C7018F779070A070B0707F
:1024000080349105A105B10539F4E7FE0DC080E4E3
:1024100090E0A0E0B0E004C08FE390E0A0E0B0E086
:10242000E80EF91E0A1F1B1F17FF05C0169507951A
:10243000F794E794319687E016950795F794E7941B
:102440008A95D1F705C0EE24FF248701EFEFF0E075
:102450006E2F679566276795902F9F77D794DD2419
:10246000D7948E2F8695492F462B582F5D29B7017B
:10247000CA011F910F91FF90EF90DF900895FC012A
:10248000DB01408151812281622F6F7770E0221F32
:102490002227221F9381892F880F822B282F30E03B
:1024A000991F9927991F11969C9311972115310512
:1024B000A9F5411551056105710511F482E037C098
:1024C00082E89FEF13969C938E9312979A01AB012B
:1024D00067E0220F331F441F551F6A95D1F783E031
:1024E0008C930DC0220F331F441F551F12968D91E0
:1024F0009C911397019713969C938E93129720307B
:1025000080E0380780E0480780E4580758F31496C5
:102510002D933D934D935C93179708952F3F31056D
:1025200079F4411551056105710519F484E08C9326
:10253000089564FF03C081E08C9312C01C9210C008
:102540002F57304013963C932E93129783E08C9331
:1025500087E0440F551F661F771F8A95D1F7706477
:1025600014964D935D936D937C93179708951F93E5
:10257000DC01FB019C91923008F447C080818230DD
:1025800008F443C0943051F411961C91843099F5AD
:102590008181682F70E0611B71093FC0843021F098
:1025A000923031F48230B9F18181882389F12DC0D4
:1025B00011961C9111978230F1F081811817D9F48E
:1025C00012962D913C9113978281938182179307E4
:1025D00094F028173907BCF014968D919D910D90B9
:1025E000BC91A02D24813581468157812817390758
:1025F0004A075B0718F4112341F00AC082179307BA
:10260000A407B50740F4112319F061E070E005C09C
:102610006FEF7FEF02C060E070E0CB011F91089583
:10262000629FD001739FF001829FE00DF11D649FB6
:10263000E00DF11D929FF00D839FF00D749FF00D42
:10264000659FF00D9927729FB00DE11DF91F639FE3
:10265000B00DE11DF91FBD01CF0111240895991B93
:1026600079E004C0991F961708F0961B881F7A9589
:10267000C9F78095089597FB092E07260AD077FDA4
:1026800004D00CD006D000201AF4709561957F4FCD
:102690000895F6F7909581959F4F0895AA1BBB1B4F
:1026A00051E107C0AA1FBB1FA617B70710F0A61B52
:1026B000B70B881F991F5A95A9F780959095BC0173
:1026C000CD0108952F923F924F925F926F927F9229
:1026D0008F929F92AF92BF92CF92DF92EF92FF9232
:1026E0000F931F93CF93DF93CDB7DEB7CA1BDB0BDE
:1026F0000FB6F894DEBF0FBECDBF09942A88398883
:1027000048885F846E847D848C849B84AA84B98489
:10271000C884DF80EE80FD800C811B81AA81B98195
:10272000CE0FD11D0FB6F894DEBF0FBECDBFED01A9
:102730000895A0E0B0E0EFE9F3E10C946A13EC0136
:10274000A880B980CA80DB80A114B104C104D1047F
:1027500041F484E2A82E89EDB82E8BE5C82E87E0DF
:10276000D82EC601B5012DE133EF41E050E00E94C3
:10277000C31527EA31E440E050E00E9410137B01CA
:102780008C01C601B5012DE133EF41E050E00E941C
:10279000C315CA01B9012CEE34EF4FEF5FEF0E9471
:1027A00010136E0D7F1D801F911F97FF04C0615095
:1027B000704080409048688379838A839B839B0123
:1027C0003F77C901CDB7DEB7EAE00C9486130E94CB
:1027D0009913089582E791E00E9499130895A0E06B
:1027E000B0E08093720190937301A0937401B09351
:1027F00075010895FB019F01E8944230C4F0453211
:10280000B4F44A3029F497FB1EF4909581959F4FBC
:10281000642F77270E944E13805D8A330CF0895D08
:102820008193CB010097A1F716F45DE251931082DA
:10283000C9010C947F1403D0E39528C0E4C03FD0B5
:10284000E8F3E894E0E0BB279F57F0F02AED3FE083
:1028500049EC06C0EE0FBB0F661F771F881F28F0DC
:10286000B23A62077307840728F0B25A620B730BFF
:10287000840BE3959A9572F7803830F49A95BB0FE4
:10288000661F771F881FD2F79048B1C0EF93E0FF13
:1028900006C0A2EA2AED3FE049EC5FEB4DD0D5D06F
:1028A0000F90039401FC9058E4E5F0E0AFC057FDB1
:1028B0009058440F551F59F05F3F71F04795880FAE
:1028C00097FB991F61F09F3F79F087950895121645
:1028D00013061406551FF2CF4695F1DF08C01616F1
:1028E00017061806991FF1CF8695710561050894A2
:1028F00008959F93A4DF0F9007FCEE5FC7CFDC0124
:10290000FC01672F71917723E1F7329704C07C9126
:102910006D9370836291AE17BF07C8F3089587D097
:1029200030F08CD020F031F49F3F11F41EF46BC0D6
:102930000EF4E095E7FB53C0E92FB9DF80F3BA1737
:10294000620773078407950718F071F49EF58EC02F
:102950000EF4E0950B2EBA2FA02D0B01B9019001BA
:102960000C01CA01A0011124FF27591B99F0593FFE
:1029700050F4503E68F11A16F040A22F232F342F46
:102980004427585FF3CF469537952795A795F04094
:102990005395C9F77EF41F16BA0B620B730B840BA9
:1029A000BAF09150A1F0FF0FBB1F661F771F881F61
:1029B000C2F70EC0BA0F621F731F841F48F48795B9
:1029C00077956795B795F7959E3F08F0B3CF9395A8
:1029D000880F08F09927EE0F97958795089597F936
:1029E0009F6780E870E060E008959F3F31F091506C
:1029F00020F4879577956795B795880F911D9695E3
:102A0000879597F908959FEF80EC08959F938F9392
:102A10007F936F93FF93EF939B01AC0184D9EF9168
:102A2000FF912BD02F913F914F915F917CC9002452
:102A30000A941616170618060906089500240A9423
:102A400012161306140605060895092E0394000CA9
:102A500011F4882352F0BB0F40F4BF2B11F460FF38
:102A600004C06F5F7F4F8F4F9F4F0895E894BB273F
:102A700066277727CB0197F90895DF93CF931F93AC
:102A80000F93FF92EF92DF927B018C01689405C057
:102A9000DA2EEF0121D0FE01E894A5912591359120
:102AA00045915591AEF3EF0147DFFE019701A80173
:102AB000DA9479F7DF90EF90FF900F911F91CF910B
:102AC000DF910895B4DF28F0B9DF18F0952309F0FD
:102AD00086CF99CF1124CBCFEADEA0F3959FD1F317
:102AE000950F50E0551F629FF001729FBB27F00DBC
:102AF000B11D639FAA27F00DB11DAA1F649F662711
:102B0000B00DA11D661F829F2227B00DA11D621F5F
:102B1000739FB00DA11D621F839FA00D611D221F19
:102B2000749F3327A00D611D231F849F600D211DFD
:102B3000822F762F6A2F11249F5750408AF0E1F0A0
:102B400088234AF0EE0FFF1FBB1F661F771F881FE9
:102B500091505040A9F79E3F510570F040CF87CF6C
:102B60005F3FECF3983EDCF3869577956795B795D4
:102B7000F795E7959F5FC1F7FE2B880F911D9695FE
:102B8000879597F9089597FB092E05260ED057FDD6
:102B900004D014D00AD0001C38F4509540953095DC
:102BA00021953F4F4F4F5F4F0895F6F790958095D1
:102BB000709561957F4F8F4F9F4F0895A1E21A2E18
:102BC000AA1BBB1BFD010DC0AA1FBB1FEE1FFF1FD1
:102BD000A217B307E407F50720F0A21BB30BE40B21
:102BE000F50B661F771F881F991F1A9469F7609568
:102BF0007095809590959B01AC01BD01CF01089522
:042C0000F894FFCF76
:102C04003A0054696D653A2000FF0000000000009E
:102C14000000000102020303030304040404040487
:102C24000404050505050505050505050505050552
:102C34000505060606060606060606060606060632
:102C44000606060606060606060606060606060620
:102C54000606070707070707070707070707070702
:102C640007070707070707070707070707070707F0
:102C740007070707070707070707070707070707E0
:102C840007070707070707070707070707070707D0
:102C940007070808080808080808080808080808B2
:102CA40008080808080808080808080808080808A0
:102CB4000808080808080808080808080808080890
:102CC4000808080808080808080808080808080880
:102CD4000808080808080808080808080808080870
:102CE4000808080808080808080808080808080860
:102CF4000808080808080808080808080808080850
:102D0400080808080808080808080808080808083F
:062D1400080801000000A8
:00000001FF
